:020000040800F2
:10000000780600203902000877020008790200080B
:100010007B0200087D0200087F020008000000004B
:100020000000000000000000000000008102000845
:100030008302000800000000850200088702000813
:100040008902000889020008890200088902000864
:100050008902000889020008890200088902000854
:100060008902000889020008890200088902000844
:100070008902000889020008890200088902000834
:100080008902000889020008890200088902000824
:100090008902000889020008890200088902000814
:1000A0008902000889020008890200088902000804
:1000B00089020008890200088902000889020008F4
:1000C00089020008890200088902000889020008E4
:1000D00089020008890200088902000889020008D4
:1000E00075050008890200088902000889020008D5
:1000F00089020008890200088902000889020008B4
:1001000089020008890200088902000889020008A3
:100110008902000889020008890200088902000893
:100120008902000889020008890200088902000883
:100130008902000889020008890200088902000873
:100140008902000889020008890200088902000863
:100150008902000889020008890200088902000853
:100160008902000889020008890200088902000843
:1001700089020008890200088902000800000000C6
:10018000890200088902000800F002F800F044F833
:1001900014A696E8000CB244B344DA4501D100F04D
:1001A0003BF8BAE80F000FA696E83000A5EB04056F
:1001B00004EB0607AAEB0704A7F101074FEA1515A0
:1001C0004FEA3414A4F10104AC4201D300F024F846
:1001D00013F0010F18BFFB1A43F0010300F001F800
:1001E000DBE7184788070000980700007047000009
:1001F0000023002400250026103A28BF78C1FBD830
:10020000520728BF30C148BF0B6070471FB500F0D0
:100210009FFB1FBD10B510BD00F057F81146FFF74A
:10022000F5FF00F039FB00F075F803B4FFF7F2FFBB
:1002300003BC00F07DF8000017481849184B99429C
:100240003CBF50F8042B41F8042BF8D3154B16494A
:100250004FF000028B4238BF43F8042BFAD3DFF88B
:100260004C00016841F470010160BFF34F8FBFF390
:100270006F8F0F480047FEE7FEE7FEE7FEE7FEE769
:10028000FEE7FEE7FEE7FEE7FEE7000009480A4951
:100290000A4A0B4B704700007C0900080000002050
:1002A00000000020000000207806002088ED00E01B
:1002B00089010008780000207806002078020020DC
:1002C00078020020704770477047754600F02CF8A0
:1002D000AE4605006946534620F00700854618B033
:1002E00020B5FFF7D3FFBDE820404FF000064FF0E8
:1002F00000074FF000084FF0000BAC46ACE8C00917
:10030000ACE8C009ACE8C009ACE8C00921F00701BD
:100310008D46704710B50446AFF300802046BDE817
:100320001040FFF782BF0000004870470000002027
:1003300001491820ABBEFEE726000200704700000E
:100340000421C4F20101086840F48070086040F2A2
:100350000831C5F20401086840F4800008600868AC
:1003600020F470100860086820F4403008600868C5
:1003700040F480300860086820F01F000860704773
:1003800080B582B041F24C01C4F20201086840F429
:100390000050086041F22C01C4F20201086840F4E8
:1003A00000500860086820F4005008600821C5F279
:1003B00004010091086820F00100086000F04AF88C
:1003C000FFF7BEFF00F064F800990C22C5F20402AA
:1003D0000192106820F018001060106820F02000D2
:1003E00010603023C5F20403186820F00F00186075
:1003F000186840F4C0701860B023C5F20403186890
:1004000020F0400018601423C5F20403186820F49B
:10041000E0101860186840F038001860186840F460
:10042000E0701860106820F400501060106820F42C
:1004300040601060086840F001000860FFE700209D
:10044000C5F204000068C00708B9FFE7F7E702B08B
:1004500080BD000041F24C01C4F20201086840F086
:10046000010008604FF09041086840F00C000860FF
:100470000C21C4F60001086820F00C0008602C2153
:10048000C4F60001086840F00200086070470000F0
:1004900081B00820C5F2040000688000002808D55B
:1004A000FFE70821C5F20401086820F00050086049
:1004B000FFE70821C5F20401086840F08050086099
:1004C0004FF4C8600090FFE7009820B1FFE7009864
:1004D00001380090F8E701B07047000080B500F0E7
:1004E00029F841F25801C4F20201086840F00050B6
:1004F000086047F20041C4F20001086820F00100E2
:100500000860086840F038000860086820F00400BF
:10051000086047F23C42C4F20002106820F0070075
:100520001060086840F001000860002000F018F832
:1005300080BD000041F24C01C4F20201086840F0A5
:10054000010008604FF09041086840F44070086076
:100550000C21C4F60001086820F440700860704760
:1005600081B00090009847F20841C4F20001086091
:1005700001B0704780B540F21441C4F2010108682F
:1005800040F40050086040F26800C2F200000068C9
:1005900001282AD1FFE740F26001C2F20001086899
:1005A00000F50070086040F27000C2F200000168BF
:1005B00001F500710160006840F6FF71884213DBAD
:1005C000FFE740F27001C2F2000140F6FF700860E0
:1005D00040F26001C2F20001086040F26801C2F21C
:1005E000000100200860FFE72EE040F26800C2F240
:1005F0000000006838BBFFE740F26001C2F2000172
:100600000868A0F50070086040F27000C2F20000B7
:100610000168A1F5007101600068002812DCFFE7A5
:1006200040F27001C2F200010020086040F2600157
:10063000C2F20001086040F26801C2F2000101202C
:100640000860FFE7FFE7FFE740F26000C2F200004A
:100650000068FFF785FF80BD80B582B041F24C0194
:10066000C4F20201086840F00400086040F600018E
:10067000C4F60001086820F04060086040F60C01F4
:10068000C4F60001086820F04060086041F2600193
:10069000C4F20201086840F0010008601421C4F2AD
:1006A0000101086820F070000860086840F0200030
:1006B000086040F20C41C4F20101086840F40050A7
:1006C000086040F20041C4F20101086840F40050A3
:1006D00008602820019000F0A5F80198002100F0A2
:1006E000B9F802B080BD000041F24C01C4F2020131
:1006F000086840F0010008604FF09041086820F45D
:1007000040600860086840F4006008600821C4F692
:100710000001086840F4406008600C21C4F6000144
:10072000086820F4406008602021C4F600010868D1
:1007300020F480100860086840F48010086070475A
:1007400081B041F20801C4F20201086820F0030000
:10075000086041F20001C4F202010091086820F033
:10076000F0000860086840F050000860086840F039
:1007700008000860086840F001000860FFE741F2E7
:100780000000C4F2020000688007002801D4FFE7DF
:10079000F5E701B07047000041F25801C4F20201D0
:1007A000086840F0010008604FF08041086820F0C0
:1007B000100008602822C4F20002132010602C22CE
:1007C000C4F2000240F2E73010601822C4F20002C6
:1007D00010684FF68F73CFF6FE73184010601068E4
:1007E00040F020001060106840F040001060106879
:1007F00040F0080010602022C4F20002106820F0CF
:1008000002001060106840F0010010603422C4F251
:1008100000024FF4FA701060086840F001000860B0
:100820007047000081B08DF803009DF90300002897
:100830000ED4FFE79DF9031001F01F020120904044
:100840004A094EF20011CEF2000141F82200FFE702
:1008500001B0704782B08DF8070000919DF9070044
:1008600000280AD4FFE7009800019DF907104EF216
:100870000042CEF2000288540BE0009800019DF87F
:10088000071001F00F014EF61452CEF20002885408
:10089000FFE702B07047000080B582B000200090F2
:1008A0000190FFF74DFFFFF76BFDFFF717FEFFF716
:1008B000D3FEFFF719FFFFF76FFF00983421C4F252
:1008C000000108604021C5F20401096840F2640299
:1008D000C2F20002118040F26C01C2F200010880F5
:1008E000FFE70821C5F20401086840F00400086031
:1008F000FFE740F20031C5F20401086800F004008F
:10090000086008B9FFE7F4E740F26400C2F20000B3
:10091000018840F26C02C2F2000211804021C5F24F
:1009200004010968018000882C21C4F200010968D3
:10093000414340F20110C0F21000A1FB0020091A4F
:1009400000EB5100C00A3421C4F200010860C8E77E
:10095000F1EE100A4FF6FF71C0F2C03120EA01003B
:1009600040F04070E1EE100A704700007C0900087A
:0C0970000000002078060000F0010008E4
:040000050800018965
:00000001FF
